09944624Jacques        Bouvier    39513SERMANGE                                          JURA                        FRANCHE-COMTE                 00000000000000000000000000
31345198Oceane         Rousseau   39539VADANS                                            JURA                        FRANCHE-COMTE                 00000000000000000000000000
44251337Michele        Riviere    51005ALLEMANT                                          MARNE                       CHAMPAGNE-ARDENNE             00000000000000000000000000
44420783Daniel         Meunier    80077BEHENCOURT                                        SOMME                       PICARDIE                      00000000000000000000000000
53465980Dominique      Robin      38325PROVEYSIEUX                                       ISERE                       RHONE-ALPES                   00000000000000000000000000
58934858Benjamin       Leger      41152MONTRIEUX-EN-SOLOGNE                              LOIR-ET-CHER                CENTRE                        00000000000000000000000000
59079620Marie          Julien     80617PARVILLERS-LE-QUESNOY                             SOMME                       PICARDIE                      00000000000000000000000000
64690071Nadine         Le Goff    21611SOMBERNON                                         COTE-D'OR                   BOURGOGNE                     00000000000000000000000000
78046790Anais          Martin     60175CREIL                                             OISE                        PICARDIE                      00000000000000000000000000
