09944624Jacques        Bouvier    39513SERMANGE                                          JURA                        FRANCHE-COMTE                 00000000000000000000000001
31345198Oceane         Rousseau   39539VADANS                                            JURA                        FRANCHE-COMTE                 00039000013600012600012801
44420783Daniel         Meunier    80077BEHENCOURT                                        SOMME                       PICARDIE                      00083100027700027700027701
53465980Dominique      Robin      38325PROVEYSIEUX                                       ISERE                       RHONE-ALPES                   00065700018500023500023701
58934858Benjamin       Leger      41152MONTRIEUX-EN-SOLOGNE                              LOIR-ET-CHER                CENTRE                        00038600013000012900012701
59079620Marie          Julien     80617PARVILLERS-LE-QUESNOY                             SOMME                       PICARDIE                      00047500014200009500023802
64690071Nadine         Le Goff    21611SOMBERNON                                         COTE-D'OR                   BOURGOGNE                     00000000000000000000000001
78046790Anais          Martin     60175CREIL                                             OISE                        PICARDIE                      00012400003700002500006201
